:1000000008C1000034C1000032C1000030C100004E
:100010002EC100002CC100002AC1000028C1000030
:1000200026C1000024C1000022C1000020C1000040
:100030001EC100001CC100001AC1000018C1000050
:1000400016C1000014C1000012C1000010C1000060
:100050000EC100000CC100000AC100004DC4000028
:1000600006C100006BC300009FC3000000C1000078
:10007000FEC00000FCC00000FAC00000F8C0000094
:10008000F6C00000F4C00000F2C00000F0C00000A4
:10009000EEC00000ECC00000EAC00000E8C00000B4
:1000A000E6C00000E4C00000E2C00000E0C00000C4
:1000B000DEC00000DCC00000DAC00000D8C00000D4
:1000C000D6C00000D4C00000D2C00000D0C00000E4
:1000D000CEC00000CCC00000CAC00000C8C00000F4
:1000E000C6C000009A059D058C0590059605D405AF
:1000F000A105A505AB05AF05B305B905BD05C1054E
:10010000D405C705CB05CF0500000A0B02090C0D6D
:100110000E080703040100000000000000000000BA
:1001200000000000000000000000000000000000CF
:10013000000000001211100000000000000000008C
:1001400000000000000000000000000000000102AC
:1001500010202008081020401020408002010201D9
:100160000804020101020408102040808040201091
:1001700008040201800402018040201008040201EA
:100180000804020101020408102040800102040852
:10019000102040800505050507050808080802022B
:1001A00002020A0A08080404040401010101010111
:1001B00001010303030303030303040707070C0CF4
:1001C0000C0C0C0C0C0C02020202060606060606BB
:1001D00006060B0B0B0B0B0B0B0B00002200250074
:1001E00028002B002E003100340002010000050120
:1001F00008010B0100002100240027002A002D0027
:100200003000330001010000040107010A012E0241
:10021000060411241FBECFEFD1E2DEBFCDBF00E048
:100220000CBF12E0A0E0B2E0E4EEFCE000E00BBFA7
:1002300002C007900D92A031B107D9F723E0A0E1E9
:10024000B2E001C01D92A137B207E1F712E0C2E1AE
:10025000D2E000E005C022970109FE010BBF3CD5AA
:10026000CE30D10780E00807B1F73CD339C5C8CEFE
:100270008BEC92E090933502809334021092360218
:10028000109237021092380210923D0210923C02F6
:1002900010923F0210923E028FEF9FEF9093410227
:1002A00080934002909343028093420283E08093C4
:1002B0004402109245021092470210924602109298
:1002C0004802109249021092CA0280E8EAE4F2E081
:1002D000DF011D928A95E9F7109211021092100227
:1002E0001092130210921202109215021092140230
:1002F0001092170210921602109219021092180210
:1003000010921B0210921A0210921D0210921C02EF
:1003100010921F0210921E021092210210922002CF
:1003200010922302109222021092250210922402AF
:10033000109227021092260210922902109228028F
:1003400010922B0210922A0210922D0210922C026F
:1003500010922F0210922E0210923102109230024F
:100360001092330210923202089526E042E15AE7D9
:1003700060E070E080913402909135027FD110925C
:100380003602109238021092370210923F021092F9
:100390003E0210923D0210923C028FEF9FEF90932D
:1003A0004102809340029093430280934202109254
:1003B000CA02109247021092460210924502109211
:1003C000480210924902E4E4F2E080818170826088
:1003D0008160808361E08DE0E8C3CF93CEE18091BE
:1003E000340290913502DC01ED91FC910190F08195
:1003F000E02D60E919958091340290913502DC017D
:10040000ED91FC910190F081E02D6C2F1995809178
:10041000340290913502DC01ED91FC916C2F660F56
:100420006F770190F081E02D199561E08DE0F6D3B2
:1004300069E170E080E090E0CCD260E08DE0EED346
:1004400062E370E080E090E0C4D2CF5FCA3539F655
:1004500060ED77E080E090E0CF91BBC209CFFC0176
:10046000818D228D90E0805C9F4F821B91098F735C
:1004700099270895FC01918D828D981731F0828D16
:10048000E80FF11D858D90E008958FEF9FEF08959F
:10049000FC01918D828D981761F0828DDF01A80F8C
:1004A000B11D5D968C91928D9F5F9F73928F90E0AE
:1004B00008958FEF9FEF08958DEF93E0892B39F02A
:1004C00080E090E0892B19F098D1811125C080E05F
:1004D00090E0892B41F080E090E0892B21F00E9490
:1004E000000081111CC080E090E0892B41F080E089
:1004F00090E0892B21F00E940000811113C080E060
:1005000090E0892BA1F080E090E0892B81F00E949F
:10051000000081110AC008950E940000D8CF0E94F7
:100520000000E1CF0E940000EACF0C940000089583
:10053000FC01848DDF01A80FB11DA35ABF4F2C9180
:10054000848D90E001968F739927848FA689B7894F
:100550002C93A089B1898C9180648C93938D848D28
:10056000981306C00288F389E02D80818F7D8083F7
:100570000895CF93DF93EC01888D8823C1F0EA8939
:10058000FB89808185FD05C0A889B9898C9186FD8C
:100590000EC00FB607FCF5CF808185FFF2CFA8898A
:1005A000B9898C9185FFEDCFCE01C2DFE8CFDF9115
:1005B000CF910895CF92DF92FF920F931F93CF9325
:1005C000DF931F92CDB7DEB76C0181E0D60158965C
:1005D0008C9358975B969C915B975C968C915C97FB
:1005E000981307C05096ED91FC915197808185FD3D
:1005F0002DC0F601038D10E00F5F1F4F0F73112701
:10060000F02EF601848DF81210C00FB607FCF9CF5A
:10061000D6015096ED91FC915197808185FFF1CFE5
:10062000C601698385DF6981ECCF838DE80FF11DF9
:10063000E35AFF4F6083D6015B960C935B9752960B
:10064000ED91FC915397808180620CC0D601569643
:10065000ED91FC91579760835096ED91FC915197E5
:1006600080818064808381E090E00F90DF91CF9162
:100670001F910F91FF90DF90CF900895BF92CF927E
:10068000DF92EF92FF92CF93DF93EC016A017B013F
:10069000B22EE889F98982E08083411581EE5807FE
:1006A0006105710599F060E079E08DE390E0A701C4
:1006B0009601EAD2215031094109510956954795D1
:1006C00037952795211580E1380790F0E889F98959
:1006D000108260E874E88EE190E0A7019601D4D220
:1006E000215031094109510956954795379527956C
:1006F000EC85FD853083EE85FF852083188EEC899F
:10070000FD89B082EA89FB89808180618083EA89E2
:10071000FB89808188608083EA89FB898081806889
:100720008083EA89FB8980818F7D8083DF91CF91EF
:10073000FF90EF90DF90CF90BF9008951F920F929F
:100740000FB60F9211240BB60F922F938F939F9396
:10075000EF93FF93E091DB02F091DC028081E09166
:10076000E102F091E20282FD12C090818091E402E8
:100770008F5F8F732091E502821751F0E091E402C0
:10078000F0E0E553FD4F958F8093E40201C0808136
:10079000FF91EF919F918F912F910F900BBE0F9032
:1007A0000FBE0F901F9018951F920F920FB60F92C9
:1007B00011240BB60F922F933F934F935F936F9338
:1007C0007F938F939F93AF93BF93EF93FF938BECA4
:1007D00092E0AEDEFF91EF91BF91AF919F918F912B
:1007E0007F916F915F914F913F912F910F900BBE31
:1007F0000F900FBE0F901F9018958BEC92E02FDE9C
:1008000021E0892B09F420E0822F08951092CE0276
:100810001092CD0288EE93E0A0E0B0E08093CF028A
:100820009093D002A093D102B093D20284E092E0E0
:100830009093CC028093CB0285EC90E09093D80209
:100840008093D70284EC90E09093DA028093D902EF
:1008500080EC90E09093DC028093DB0281EC90E0EE
:100860009093DE028093DD0282EC90E09093E002B0
:100870008093DF0286EC90E09093E2028093E102A5
:100880001092E4021092E5021092E6021092E70242
:100890000895CF92DF92EF92FF920F931F93CF9321
:1008A000DF937C016A01EB0100E010E00C151D05EF
:1008B00071F06991D701ED91FC910190F081E02DEB
:1008C000C7011995892B19F00F5F1F4FEFCFC80192
:1008D000DF91CF911F910F91FF90EF90DF90CF901C
:1008E00008950895ADD0FDDF40DDCCE5D2E075DDA3
:1008F0002097E9F3E1DDFBCF1F920F920FB60F9225
:1009000011242F933F938F939F93AF93BF93809125
:10091000690390916A03A0916B03B0916C033091CD
:10092000680323E0230F2D3720F40196A11DB11D8C
:1009300005C026E8230F0296A11DB11D2093680370
:100940008093690390936A03A0936B03B0936C0345
:1009500080916D0390916E03A0916F03B09170032D
:100960000196A11DB11D80936D0390936E03A0931A
:100970006F03B0937003BF91AF919F918F913F919F
:100980002F910F900FBE0F901F9018953FB7F894BE
:1009900080916D0390916E03A0916F03B0917003ED
:1009A00026B5A89B05C02F3F19F00196A11DB11DCA
:1009B0003FBF6627782F892F9A2F620F711D811DE7
:1009C000911D42E0660F771F881F991F4A95D1F746
:1009D00008958F929F92AF92BF92CF92DF92EF9243
:1009E000FF926B017C01D2DF4B015C01C114D10489
:1009F000E104F104E1F047D1C9DF681979098A09F6
:100A00009B09683E73408105910580F321E0C21A7D
:100A1000D108E108F10888EE880E83E0981EA11C39
:100A2000B11CC114D104E104F10431F7DFCFFF9010
:100A3000EF90DF90CF90BF90AF909F908F900895F0
:100A4000789484B5826084BD84B5816084BD85B5A9
:100A5000826085BD85B5816085BDEEE6F0E0808170
:100A600081608083E1E8F0E0108280818260808391
:100A7000808181608083E0E8F0E080818160808314
:100A8000E1EBF0E0808184608083E0EBF0E0808146
:100A900081608083E1E9F0E08081826080838081F1
:100AA00081608083E0E9F0E0808181608083E1EA19
:100AB000F0E0808182608083808181608083E0EAD1
:100AC000F0E0808181608083E1E2F1E080818260FA
:100AD0008083808181608083E0E2F1E080818160B9
:100AE0008083EAE7F0E08081846080838081826097
:100AF0008083808181608083808180688083109280
:100B0000C100089590E0FC013197E231F10508F051
:100B10004BC0EE58FF4FDAC0809180008F7703C042
:100B2000809180008F7D8093800008958091800067
:100B3000877FF9CF84B58F7702C084B58F7D84BD60
:100B400008958091B0008F7703C08091B0008F7DB1
:100B50008093B0000895809190008F7707C08091B6
:100B600090008F7D03C080919000877F80939000DC
:100B700008958091A0008F7707C08091A0008F7D9D
:100B800003C08091A000877F8093A000089580918A
:100B900020018F7707C0809120018F7D03C0809155
:100BA0002001877F809320010895CF93DF9390E009
:100BB000FC01E25BFE4F2491FC01EC56FE4F849158
:100BC000882349F190E0880F991FFC01EC50FE4FFB
:100BD000A591B49186529E4FFC01C591D4919FB7C7
:100BE000611108C0F8948C91209582238C938881A0
:100BF00082230AC0623051F4F8948C91322F3095E0
:100C000083238C938881822B888304C0F8948C91F1
:100C1000822B8C939FBFDF91CF9108950F931F93E9
:100C2000CF93DF931F92CDB7DEB7282F30E0F901C5
:100C3000E85FFE4F8491F901E25BFE4F1491F901E8
:100C4000EC56FE4F04910023C1F0882319F069830C
:100C500059DF6981E02FF0E0EE0FFF1FE652FE4FF3
:100C6000A591B4919FB7F8948C91611103C0109530
:100C7000812301C0812B8C939FBF0F90DF91CF9177
:100C80001F910F9108950895A1E21A2EAA1BBB1B74
:100C9000FD010DC0AA1FBB1FEE1FFF1FA217B30748
:100CA000E407F50720F0A21BB30BE40BF50B661F5E
:100CB000771F881F991F1A9469F760957095809522
:100CC00090959B01AC01BD01CF010895EE0FFF1F70
:100CD0000590F491E02D19940790F691E02D199468
:040CE000F894FFCFB6
:100CE40000000000DA0249042F0248023A02B90265
:00000001FF
